{
  "contractName": "PrivateSaleFlat",
  "abi": [
    {
      "constant": true,
      "inputs": [],
      "name": "hasClosed",
      "outputs": [
        {
          "name": "",
          "type": "bool"
        }
      ],
      "payable": false,
      "stateMutability": "view",
      "type": "function"
    },
    {
      "constant": true,
      "inputs": [
        {
          "name": "",
          "type": "address"
        }
      ],
      "name": "balances",
      "outputs": [
        {
          "name": "",
          "type": "uint256"
        }
      ],
      "payable": false,
      "stateMutability": "view",
      "type": "function"
    },
    {
      "constant": true,
      "inputs": [],
      "name": "rate",
      "outputs": [
        {
          "name": "",
          "type": "uint256"
        }
      ],
      "payable": false,
      "stateMutability": "view",
      "type": "function"
    },
    {
      "constant": true,
      "inputs": [],
      "name": "cap",
      "outputs": [
        {
          "name": "",
          "type": "uint256"
        }
      ],
      "payable": false,
      "stateMutability": "view",
      "type": "function"
    },
    {
      "constant": true,
      "inputs": [],
      "name": "weiRaised",
      "outputs": [
        {
          "name": "",
          "type": "uint256"
        }
      ],
      "payable": false,
      "stateMutability": "view",
      "type": "function"
    },
    {
      "constant": false,
      "inputs": [
        {
          "name": "_new_rate",
          "type": "uint256"
        }
      ],
      "name": "setPayoutRate",
      "outputs": [],
      "payable": false,
      "stateMutability": "nonpayable",
      "type": "function"
    },
    {
      "constant": true,
      "inputs": [],
      "name": "closingTime",
      "outputs": [
        {
          "name": "",
          "type": "uint256"
        }
      ],
      "payable": false,
      "stateMutability": "view",
      "type": "function"
    },
    {
      "constant": false,
      "inputs": [],
      "name": "finalize",
      "outputs": [],
      "payable": false,
      "stateMutability": "nonpayable",
      "type": "function"
    },
    {
      "constant": true,
      "inputs": [],
      "name": "bonus_rate",
      "outputs": [
        {
          "name": "",
          "type": "uint256"
        }
      ],
      "payable": false,
      "stateMutability": "view",
      "type": "function"
    },
    {
      "constant": true,
      "inputs": [],
      "name": "capReached",
      "outputs": [
        {
          "name": "",
          "type": "bool"
        }
      ],
      "payable": false,
      "stateMutability": "view",
      "type": "function"
    },
    {
      "constant": true,
      "inputs": [],
      "name": "wallet",
      "outputs": [
        {
          "name": "",
          "type": "address"
        }
      ],
      "payable": false,
      "stateMutability": "view",
      "type": "function"
    },
    {
      "constant": true,
      "inputs": [
        {
          "name": "",
          "type": "address"
        }
      ],
      "name": "withdrawnBalance",
      "outputs": [
        {
          "name": "",
          "type": "uint256"
        }
      ],
      "payable": false,
      "stateMutability": "view",
      "type": "function"
    },
    {
      "constant": false,
      "inputs": [
        {
          "name": "_beneficiary",
          "type": "address"
        }
      ],
      "name": "removeFromWhitelist",
      "outputs": [],
      "payable": false,
      "stateMutability": "nonpayable",
      "type": "function"
    },
    {
      "constant": false,
      "inputs": [
        {
          "name": "_beneficiaries",
          "type": "address[]"
        }
      ],
      "name": "addManyToWhitelist",
      "outputs": [],
      "payable": false,
      "stateMutability": "nonpayable",
      "type": "function"
    },
    {
      "constant": true,
      "inputs": [],
      "name": "isFinalized",
      "outputs": [
        {
          "name": "",
          "type": "bool"
        }
      ],
      "payable": false,
      "stateMutability": "view",
      "type": "function"
    },
    {
      "constant": false,
      "inputs": [],
      "name": "withdrawTokens",
      "outputs": [],
      "payable": false,
      "stateMutability": "nonpayable",
      "type": "function"
    },
    {
      "constant": true,
      "inputs": [],
      "name": "owner",
      "outputs": [
        {
          "name": "",
          "type": "address"
        }
      ],
      "payable": false,
      "stateMutability": "view",
      "type": "function"
    },
    {
      "constant": true,
      "inputs": [
        {
          "name": "",
          "type": "address"
        }
      ],
      "name": "whitelist",
      "outputs": [
        {
          "name": "",
          "type": "bool"
        }
      ],
      "payable": false,
      "stateMutability": "view",
      "type": "function"
    },
    {
      "constant": false,
      "inputs": [
        {
          "name": "_new_percent",
          "type": "uint256"
        }
      ],
      "name": "setAllowedPercent",
      "outputs": [],
      "payable": false,
      "stateMutability": "nonpayable",
      "type": "function"
    },
    {
      "constant": true,
      "inputs": [],
      "name": "openingTime",
      "outputs": [
        {
          "name": "",
          "type": "uint256"
        }
      ],
      "payable": false,
      "stateMutability": "view",
      "type": "function"
    },
    {
      "constant": false,
      "inputs": [
        {
          "name": "_minWei",
          "type": "uint256"
        }
      ],
      "name": "setMinInvestment",
      "outputs": [],
      "payable": false,
      "stateMutability": "nonpayable",
      "type": "function"
    },
    {
      "constant": true,
      "inputs": [],
      "name": "remainingTokens",
      "outputs": [
        {
          "name": "",
          "type": "uint256"
        }
      ],
      "payable": false,
      "stateMutability": "view",
      "type": "function"
    },
    {
      "constant": true,
      "inputs": [],
      "name": "tokenWallet",
      "outputs": [
        {
          "name": "",
          "type": "address"
        }
      ],
      "payable": false,
      "stateMutability": "view",
      "type": "function"
    },
    {
      "constant": false,
      "inputs": [
        {
          "name": "beneficiary",
          "type": "address"
        }
      ],
      "name": "withdrawTokensTo",
      "outputs": [],
      "payable": false,
      "stateMutability": "nonpayable",
      "type": "function"
    },
    {
      "constant": true,
      "inputs": [],
      "name": "allowedPercent",
      "outputs": [
        {
          "name": "",
          "type": "uint256"
        }
      ],
      "payable": false,
      "stateMutability": "view",
      "type": "function"
    },
    {
      "constant": false,
      "inputs": [
        {
          "name": "_beneficiary",
          "type": "address"
        }
      ],
      "name": "addToWhitelist",
      "outputs": [],
      "payable": false,
      "stateMutability": "nonpayable",
      "type": "function"
    },
    {
      "constant": false,
      "inputs": [
        {
          "name": "_rate",
          "type": "uint256"
        }
      ],
      "name": "setBonusRate",
      "outputs": [],
      "payable": false,
      "stateMutability": "nonpayable",
      "type": "function"
    },
    {
      "constant": false,
      "inputs": [
        {
          "name": "_new_cap",
          "type": "uint256"
        }
      ],
      "name": "setCapAmount",
      "outputs": [],
      "payable": false,
      "stateMutability": "nonpayable",
      "type": "function"
    },
    {
      "constant": false,
      "inputs": [
        {
          "name": "_beneficiary",
          "type": "address"
        }
      ],
      "name": "buyTokens",
      "outputs": [],
      "payable": true,
      "stateMutability": "payable",
      "type": "function"
    },
    {
      "constant": false,
      "inputs": [
        {
          "name": "newOwner",
          "type": "address"
        }
      ],
      "name": "transferOwnership",
      "outputs": [],
      "payable": false,
      "stateMutability": "nonpayable",
      "type": "function"
    },
    {
      "constant": true,
      "inputs": [],
      "name": "token",
      "outputs": [
        {
          "name": "",
          "type": "address"
        }
      ],
      "payable": false,
      "stateMutability": "view",
      "type": "function"
    },
    {
      "inputs": [
        {
          "name": "_open",
          "type": "uint256"
        },
        {
          "name": "_close",
          "type": "uint256"
        },
        {
          "name": "_cap",
          "type": "uint256"
        },
        {
          "name": "_rate",
          "type": "uint256"
        },
        {
          "name": "_bonus_rate",
          "type": "uint256"
        },
        {
          "name": "_minWei",
          "type": "uint256"
        },
        {
          "name": "_wallet",
          "type": "address"
        },
        {
          "name": "_token",
          "type": "address"
        },
        {
          "name": "_tokenWallet",
          "type": "address"
        }
      ],
      "payable": false,
      "stateMutability": "nonpayable",
      "type": "constructor"
    },
    {
      "payable": true,
      "stateMutability": "payable",
      "type": "fallback"
    },
    {
      "anonymous": false,
      "inputs": [],
      "name": "Finalized",
      "type": "event"
    },
    {
      "anonymous": false,
      "inputs": [
        {
          "indexed": true,
          "name": "previousOwner",
          "type": "address"
        },
        {
          "indexed": true,
          "name": "newOwner",
          "type": "address"
        }
      ],
      "name": "OwnershipTransferred",
      "type": "event"
    },
    {
      "anonymous": false,
      "inputs": [
        {
          "indexed": false,
          "name": "now",
          "type": "uint256"
        },
        {
          "indexed": false,
          "name": "open",
          "type": "uint256"
        },
        {
          "indexed": false,
          "name": "close",
          "type": "uint256"
        }
      ],
      "name": "TimeCrowdsaleStatus",
      "type": "event"
    },
    {
      "anonymous": false,
      "inputs": [
        {
          "indexed": true,
          "name": "purchaser",
          "type": "address"
        },
        {
          "indexed": true,
          "name": "beneficiary",
          "type": "address"
        },
        {
          "indexed": false,
          "name": "value",
          "type": "uint256"
        },
        {
          "indexed": false,
          "name": "amount",
          "type": "uint256"
        }
      ],
      "name": "TokenPurchase",
      "type": "event"
    }
  ],
  "bytecode": "0x60606040526001600a556001600b556000600d60006101000a81548160ff0219169083151502179055506000600e55341561003957600080fd5b6040516101208062001cc0833981016040528080519060200190919080519060200190919080519060200190919080519060200190919080519060200190919080519060200190919080519060200190919080519060200190919080519060200190919050508484888b8b858b89896000831115156100b757600080fd5b600073ffffffffffffffffffffffffffffffffffffffff168273ffffffffffffffffffffffffffffffffffffffff16141515156100f357600080fd5b600073ffffffffffffffffffffffffffffffffffffffff168173ffffffffffffffffffffffffffffffffffffffff161415151561012f57600080fd5b8260028190555081600160006101000a81548173ffffffffffffffffffffffffffffffffffffffff021916908373ffffffffffffffffffffffffffffffffffffffff160217905550806000806101000a81548173ffffffffffffffffffffffffffffffffffffffff021916908373ffffffffffffffffffffffffffffffffffffffff160217905550505050600073ffffffffffffffffffffffffffffffffffffffff168173ffffffffffffffffffffffffffffffffffffffff16141515156101f657600080fd5b80600460006101000a81548173ffffffffffffffffffffffffffffffffffffffff021916908373ffffffffffffffffffffffffffffffffffffffff1602179055505042821015151561024757600080fd5b81811015151561025657600080fd5b8160058190555080600681905550505060008111151561027557600080fd5b806007819055505033600860006101000a81548173ffffffffffffffffffffffffffffffffffffffff021916908373ffffffffffffffffffffffffffffffffffffffff16021790555080600a819055505080600b81905550505050505050505050506119d980620002e76000396000f30060606040526004361061018b576000357c0100000000000000000000000000000000000000000000000000000000900463ffffffff1680631515bc2b1461019657806327e235e3146101c35780632c4e722e14610210578063355274ea146102395780634042b66f1461026257806348eaee661461028b5780634b6753bc146102ae5780634bb278f3146102d75780634c634934146102ec5780634f93594514610315578063521eb273146103425780637f245258146103975780638ab1d681146103e45780638c10671c1461041d5780638d4e40831461044b5780638d8f2adb146104785780638da5cb5b1461048d5780639b19251a146104e2578063b62835b114610533578063b7a8807c14610556578063ba7ed2ff1461057f578063bf583903146105a2578063bff99c6c146105cb578063c3c1d4c714610620578063cda4cb1c14610659578063e43252d714610682578063e4fcf329146106bb578063e61a5faf146106de578063ec8ac4d814610701578063f2fde38b1461072f578063fc0c546a14610768575b610194336107bd565b005b34156101a157600080fd5b6101a961088b565b604051808215151515815260200191505060405180910390f35b34156101ce57600080fd5b6101fa600480803573ffffffffffffffffffffffffffffffffffffffff16906020019091905050610897565b6040518082815260200191505060405180910390f35b341561021b57600080fd5b6102236108af565b6040518082815260200191505060405180910390f35b341561024457600080fd5b61024c6108b5565b6040518082815260200191505060405180910390f35b341561026d57600080fd5b6102756108bb565b6040518082815260200191505060405180910390f35b341561029657600080fd5b6102ac60048080359060200190919050506108c1565b005b34156102b957600080fd5b6102c1610937565b6040518082815260200191505060405180910390f35b34156102e257600080fd5b6102ea61093d565b005b34156102f757600080fd5b6102ff610a19565b6040518082815260200191505060405180910390f35b341561032057600080fd5b610328610a1f565b604051808215151515815260200191505060405180910390f35b341561034d57600080fd5b610355610a2e565b604051808273ffffffffffffffffffffffffffffffffffffffff1673ffffffffffffffffffffffffffffffffffffffff16815260200191505060405180910390f35b34156103a257600080fd5b6103ce600480803573ffffffffffffffffffffffffffffffffffffffff16906020019091905050610a54565b6040518082815260200191505060405180910390f35b34156103ef57600080fd5b61041b600480803573ffffffffffffffffffffffffffffffffffffffff16906020019091905050610a6c565b005b341561042857600080fd5b61044960048080359060200190820180359060200191909192905050610b23565b005b341561045657600080fd5b61045e610c25565b604051808215151515815260200191505060405180910390f35b341561048357600080fd5b61048b610c38565b005b341561049857600080fd5b6104a0610dd9565b604051808273ffffffffffffffffffffffffffffffffffffffff1673ffffffffffffffffffffffffffffffffffffffff16815260200191505060405180910390f35b34156104ed57600080fd5b610519600480803573ffffffffffffffffffffffffffffffffffffffff16906020019091905050610dff565b604051808215151515815260200191505060405180910390f35b341561053e57600080fd5b6105546004808035906020019091905050610e1f565b005b341561056157600080fd5b610569610ea5565b6040518082815260200191505060405180910390f35b341561058a57600080fd5b6105a06004808035906020019091905050610eab565b005b34156105ad57600080fd5b6105b5610f11565b6040518082815260200191505060405180910390f35b34156105d657600080fd5b6105de61104d565b604051808273ffffffffffffffffffffffffffffffffffffffff1673ffffffffffffffffffffffffffffffffffffffff16815260200191505060405180910390f35b341561062b57600080fd5b610657600480803573ffffffffffffffffffffffffffffffffffffffff16906020019091905050611073565b005b341561066457600080fd5b61066c611271565b6040518082815260200191505060405180910390f35b341561068d57600080fd5b6106b9600480803573ffffffffffffffffffffffffffffffffffffffff16906020019091905050611277565b005b34156106c657600080fd5b6106dc600480803590602001909190505061132e565b005b34156106e957600080fd5b6106ff60048080359060200190919050506113b4565b005b61072d600480803573ffffffffffffffffffffffffffffffffffffffff169060200190919050506107bd565b005b341561073a57600080fd5b610766600480803573ffffffffffffffffffffffffffffffffffffffff1690602001909190505061141a565b005b341561077357600080fd5b61077b611572565b604051808273ffffffffffffffffffffffffffffffffffffffff1673ffffffffffffffffffffffffffffffffffffffff16815260200191505060405180910390f35b6000803491506107cd8383611597565b6107d6826115b8565b90506107ed826003546115e390919063ffffffff16565b6003819055506107fd8382611601565b8273ffffffffffffffffffffffffffffffffffffffff163373ffffffffffffffffffffffffffffffffffffffff167f623b3804fa71d67900d064613da8f94b9617215ee90799290593e1745087ad188484604051808381526020018281526020019250505060405180910390a3610874838361169a565b61087c61169e565b6108868383611702565b505050565b60006006544211905090565b600c6020528060005260406000206000915090505481565b60025481565b60075481565b60035481565b600860009054906101000a900473ffffffffffffffffffffffffffffffffffffffff1673ffffffffffffffffffffffffffffffffffffffff163373ffffffffffffffffffffffffffffffffffffffff1614151561091d57600080fd5b6001811015151561092d57600080fd5b8060028190555050565b60065481565b600860009054906101000a900473ffffffffffffffffffffffffffffffffffffffff1673ffffffffffffffffffffffffffffffffffffffff163373ffffffffffffffffffffffffffffffffffffffff1614151561099957600080fd5b600d60009054906101000a900460ff161515156109b557600080fd5b6109bd61088b565b15156109c857600080fd5b6109d0611706565b7f6823b073d48d6e3a7d385eeb601452d680e74bb46afe3255a7d778f3a9b1768160405160405180910390a16001600d60006101000a81548160ff021916908315150217905550565b600b5481565b60006007546003541015905090565b600160009054906101000a900473ffffffffffffffffffffffffffffffffffffffff1681565b600f6020528060005260406000206000915090505481565b600860009054906101000a900473ffffffffffffffffffffffffffffffffffffffff1673ffffffffffffffffffffffffffffffffffffffff163373ffffffffffffffffffffffffffffffffffffffff16141515610ac857600080fd5b6000600960008373ffffffffffffffffffffffffffffffffffffffff1673ffffffffffffffffffffffffffffffffffffffff16815260200190815260200160002060006101000a81548160ff02191690831515021790555050565b6000600860009054906101000a900473ffffffffffffffffffffffffffffffffffffffff1673ffffffffffffffffffffffffffffffffffffffff163373ffffffffffffffffffffffffffffffffffffffff16141515610b8157600080fd5b600090505b82829050811015610c20576001600960008585858181101515610ba557fe5b9050602002013573ffffffffffffffffffffffffffffffffffffffff1673ffffffffffffffffffffffffffffffffffffffff1673ffffffffffffffffffffffffffffffffffffffff16815260200190815260200160002060006101000a81548160ff0219169083151502179055508080600101915050610b86565b505050565b600d60009054906101000a900460ff1681565b6000806000806000610c4861088b565b1515610c5357600080fd5b600d60009054906101000a900460ff161515610c6e57600080fd5b600c60003373ffffffffffffffffffffffffffffffffffffffff1673ffffffffffffffffffffffffffffffffffffffff168152602001908152602001600020549450600f60003373ffffffffffffffffffffffffffffffffffffffff1673ffffffffffffffffffffffffffffffffffffffff1681526020019081526020016000205493508385019250600e54606484811515610d0657fe5b040291508382039050600085111515610d1e57600080fd5b600081111515610d2d57600080fd5b848111151515610d3c57600080fd5b838101600f60003373ffffffffffffffffffffffffffffffffffffffff1673ffffffffffffffffffffffffffffffffffffffff16815260200190815260200160002081905550808503600c60003373ffffffffffffffffffffffffffffffffffffffff1673ffffffffffffffffffffffffffffffffffffffff16815260200190815260200160002081905550610dd23382611708565b5050505050565b600860009054906101000a900473ffffffffffffffffffffffffffffffffffffffff1681565b60096020528060005260406000206000915054906101000a900460ff1681565b600860009054906101000a900473ffffffffffffffffffffffffffffffffffffffff1673ffffffffffffffffffffffffffffffffffffffff163373ffffffffffffffffffffffffffffffffffffffff16141515610e7b57600080fd5b60648111151515610e8b57600080fd5b60008110151515610e9b57600080fd5b80600e8190555050565b60055481565b600860009054906101000a900473ffffffffffffffffffffffffffffffffffffffff1673ffffffffffffffffffffffffffffffffffffffff163373ffffffffffffffffffffffffffffffffffffffff16141515610f0757600080fd5b80600a8190555050565b60008060009054906101000a900473ffffffffffffffffffffffffffffffffffffffff1673ffffffffffffffffffffffffffffffffffffffff1663dd62ed3e600460009054906101000a900473ffffffffffffffffffffffffffffffffffffffff16306000604051602001526040518363ffffffff167c0100000000000000000000000000000000000000000000000000000000028152600401808373ffffffffffffffffffffffffffffffffffffffff1673ffffffffffffffffffffffffffffffffffffffff1681526020018273ffffffffffffffffffffffffffffffffffffffff1673ffffffffffffffffffffffffffffffffffffffff16815260200192505050602060405180830381600087803b151561102d57600080fd5b6102c65a03f1151561103e57600080fd5b50505060405180519050905090565b600460009054906101000a900473ffffffffffffffffffffffffffffffffffffffff1681565b6000806000806000600860009054906101000a900473ffffffffffffffffffffffffffffffffffffffff1673ffffffffffffffffffffffffffffffffffffffff163373ffffffffffffffffffffffffffffffffffffffff161415156110d757600080fd5b6110df61088b565b15156110ea57600080fd5b600d60009054906101000a900460ff16151561110557600080fd5b600c60008773ffffffffffffffffffffffffffffffffffffffff1673ffffffffffffffffffffffffffffffffffffffff168152602001908152602001600020549450600f60008773ffffffffffffffffffffffffffffffffffffffff1673ffffffffffffffffffffffffffffffffffffffff1681526020019081526020016000205493508385019250600e5460648481151561119d57fe5b0402915083820390506000851115156111b557600080fd5b6000811115156111c457600080fd5b8481111515156111d357600080fd5b838101600f60008873ffffffffffffffffffffffffffffffffffffffff1673ffffffffffffffffffffffffffffffffffffffff16815260200190815260200160002081905550808503600c60008873ffffffffffffffffffffffffffffffffffffffff1673ffffffffffffffffffffffffffffffffffffffff168152602001908152602001600020819055506112698682611708565b505050505050565b600e5481565b600860009054906101000a900473ffffffffffffffffffffffffffffffffffffffff1673ffffffffffffffffffffffffffffffffffffffff163373ffffffffffffffffffffffffffffffffffffffff161415156112d357600080fd5b6001600960008373ffffffffffffffffffffffffffffffffffffffff1673ffffffffffffffffffffffffffffffffffffffff16815260200190815260200160002060006101000a81548160ff02191690831515021790555050565b600860009054906101000a900473ffffffffffffffffffffffffffffffffffffffff1673ffffffffffffffffffffffffffffffffffffffff163373ffffffffffffffffffffffffffffffffffffffff1614151561138a57600080fd5b6001811015151561139a57600080fd5b606481111515156113aa57600080fd5b80600b8190555050565b600860009054906101000a900473ffffffffffffffffffffffffffffffffffffffff1673ffffffffffffffffffffffffffffffffffffffff163373ffffffffffffffffffffffffffffffffffffffff1614151561141057600080fd5b8060078190555050565b600860009054906101000a900473ffffffffffffffffffffffffffffffffffffffff1673ffffffffffffffffffffffffffffffffffffffff163373ffffffffffffffffffffffffffffffffffffffff1614151561147657600080fd5b600073ffffffffffffffffffffffffffffffffffffffff168173ffffffffffffffffffffffffffffffffffffffff16141515156114b257600080fd5b8073ffffffffffffffffffffffffffffffffffffffff16600860009054906101000a900473ffffffffffffffffffffffffffffffffffffffff1673ffffffffffffffffffffffffffffffffffffffff167f8be0079c531659141344cd1fd0a4f28419497f9722a3daafe3b4186f6b6457e060405160405180910390a380600860006101000a81548173ffffffffffffffffffffffffffffffffffffffff021916908373ffffffffffffffffffffffffffffffffffffffff16021790555050565b6000809054906101000a900473ffffffffffffffffffffffffffffffffffffffff1681565b80600a5481101515156115a957600080fd5b6115b3838361184a565b505050565b600080600060025484029150600b546064838115156115d357fe5b0402905080820192505050919050565b60008082840190508381101515156115f757fe5b8091505092915050565b61165381600c60008573ffffffffffffffffffffffffffffffffffffffff1673ffffffffffffffffffffffffffffffffffffffff168152602001908152602001600020546115e390919063ffffffff16565b600c60008473ffffffffffffffffffffffffffffffffffffffff1673ffffffffffffffffffffffffffffffffffffffff168152602001908152602001600020819055505050565b5050565b600160009054906101000a900473ffffffffffffffffffffffffffffffffffffffff1673ffffffffffffffffffffffffffffffffffffffff166108fc349081150290604051600060405180830381858888f19350505050151561170057600080fd5b565b5050565b565b6000809054906101000a900473ffffffffffffffffffffffffffffffffffffffff1673ffffffffffffffffffffffffffffffffffffffff166323b872dd600460009054906101000a900473ffffffffffffffffffffffffffffffffffffffff1684846000604051602001526040518463ffffffff167c0100000000000000000000000000000000000000000000000000000000028152600401808473ffffffffffffffffffffffffffffffffffffffff1673ffffffffffffffffffffffffffffffffffffffff1681526020018373ffffffffffffffffffffffffffffffffffffffff1673ffffffffffffffffffffffffffffffffffffffff1681526020018281526020019350505050602060405180830381600087803b151561182a57600080fd5b6102c65a03f1151561183b57600080fd5b50505060405180519050505050565b81600960008273ffffffffffffffffffffffffffffffffffffffff1673ffffffffffffffffffffffffffffffffffffffff16815260200190815260200160002060009054906101000a900460ff1615156118a357600080fd5b6118ad83836118b2565b505050565b6118bc82826118e5565b6007546118d4826003546115e390919063ffffffff16565b111515156118e157600080fd5b5050565b7f6a3cc0d95774f8dc6a2865d134d9104aadd33939c6c703289b1bf8c4a4728b334260055460065460405180848152602001838152602001828152602001935050505060405180910390a1600554421015801561194457506006544211155b151561194f57600080fd5b611959828261195d565b5050565b600073ffffffffffffffffffffffffffffffffffffffff168273ffffffffffffffffffffffffffffffffffffffff161415151561199957600080fd5b600081141515156119a957600080fd5b50505600a165627a7a72305820b4978e33dd4e3757d3ecb54c0281025555e3aa0479a6ea56642cde61bb27b7500029",
  "source": "pragma solidity ^0.4.18;\n\n// File: contracts/PO8/zlib/math/SafeMath.sol\n\n/**\n * @title SafeMath\n * @dev Math operations with safety checks that throw on error\n */\nlibrary SafeMath {\n\n  /**\n  * @dev Multiplies two numbers, throws on overflow.\n  */\n  function mul(uint256 a, uint256 b) internal pure returns (uint256) {\n    if (a == 0) {\n      return 0;\n    }\n    uint256 c = a * b;\n    assert(c / a == b);\n    return c;\n  }\n\n  /**\n  * @dev Integer division of two numbers, truncating the quotient.\n  */\n  function div(uint256 a, uint256 b) internal pure returns (uint256) {\n    // assert(b > 0); // Solidity automatically throws when dividing by 0\n    uint256 c = a / b;\n    // assert(a == b * c + a % b); // There is no case in which this doesn't hold\n    return c;\n  }\n\n  /**\n  * @dev Substracts two numbers, throws on overflow (i.e. if subtrahend is greater than minuend).\n  */\n  function sub(uint256 a, uint256 b) internal pure returns (uint256) {\n    assert(b <= a);\n    return a - b;\n  }\n\n  /**\n  * @dev Adds two numbers, throws on overflow.\n  */\n  function add(uint256 a, uint256 b) internal pure returns (uint256) {\n    uint256 c = a + b;\n    assert(c >= a);\n    return c;\n  }\n}\n\n// File: contracts/PO8/zlib/token/ERC20/ERC20Basic.sol\n\n/**\n * @title ERC20Basic\n * @dev Simpler version of ERC20 interface\n * @dev see https://github.com/ethereum/EIPs/issues/179\n */\ncontract ERC20Basic {\n  function totalSupply() public view returns (uint256);\n  function balanceOf(address who) public view returns (uint256);\n  function transfer(address to, uint256 value) public returns (bool);\n  event Transfer(address indexed from, address indexed to, uint256 value);\n}\n\n// File: contracts/PO8/zlib/token/ERC20/ERC20.sol\n\n/**\n * @title ERC20 interface\n * @dev see https://github.com/ethereum/EIPs/issues/20\n */\ncontract ERC20 is ERC20Basic {\n  function allowance(address owner, address spender) public view returns (uint256);\n  function transferFrom(address from, address to, uint256 value) public returns (bool);\n  function approve(address spender, uint256 value) public returns (bool);\n  event Approval(address indexed owner, address indexed spender, uint256 value);\n}\n\n// File: contracts/PO8/zlib/crowdsale/Crowdsale.sol\n\n/**\n * @title Crowdsale\n * @dev Crowdsale is a base contract for managing a token crowdsale,\n * allowing investors to purchase tokens with ether. This contract implements\n * such functionality in its most fundamental form and can be extended to provide additional\n * functionality and/or custom behavior.\n * The external interface represents the basic interface for purchasing tokens, and conform\n * the base architecture for crowdsales. They are *not* intended to be modified / overriden.\n * The internal interface conforms the extensible and modifiable surface of crowdsales. Override \n * the methods to add functionality. Consider using 'super' where appropiate to concatenate\n * behavior.\n */\n\ncontract Crowdsale {\n  using SafeMath for uint256;\n\n  // The token being sold\n  ERC20 public token;\n\n  // Address where funds are collected\n  address public wallet;\n\n  // How many token units a buyer gets per wei\n  uint256 public rate;\n\n  // Amount of wei raised\n  uint256 public weiRaised;\n\n  /**\n   * Event for token purchase logging\n   * @param purchaser who paid for the tokens\n   * @param beneficiary who got the tokens\n   * @param value weis paid for purchase\n   * @param amount amount of tokens purchased\n   */\n  event TokenPurchase(address indexed purchaser, address indexed beneficiary, uint256 value, uint256 amount);\n\n  /**\n   * @param _rate Number of token units a buyer gets per wei\n   * @param _wallet Address where collected funds will be forwarded to\n   * @param _token Address of the token being sold\n   */\n  function Crowdsale(uint256 _rate, address _wallet, ERC20 _token) public {\n    require(_rate > 0);\n    require(_wallet != address(0));\n    require(_token != address(0));\n\n    rate = _rate;\n    wallet = _wallet;\n    token = _token;\n  }\n\n  // -----------------------------------------\n  // Crowdsale external interface\n  // -----------------------------------------\n\n  /**\n   * @dev fallback function ***DO NOT OVERRIDE***\n   */\n  function () external payable {\n    buyTokens(msg.sender);\n  }\n\n  /**\n   * @dev low level token purchase ***DO NOT OVERRIDE***\n   * @param _beneficiary Address performing the token purchase\n   */\n  function buyTokens(address _beneficiary) public payable {\n\n    uint256 weiAmount = msg.value;\n    _preValidatePurchase(_beneficiary, weiAmount);\n\n    // calculate token amount to be created\n    uint256 tokens = _getTokenAmount(weiAmount);\n\n    // update state\n    weiRaised = weiRaised.add(weiAmount);\n\n    _processPurchase(_beneficiary, tokens);\n    TokenPurchase(msg.sender, _beneficiary, weiAmount, tokens);\n\n    _updatePurchasingState(_beneficiary, weiAmount);\n\n    _forwardFunds();\n    _postValidatePurchase(_beneficiary, weiAmount);\n  }\n\n  // -----------------------------------------\n  // Internal interface (extensible)\n  // -----------------------------------------\n\n  /**\n   * @dev Validation of an incoming purchase. Use require statemens to revert state when conditions are not met. Use super to concatenate validations.\n   * @param _beneficiary Address performing the token purchase\n   * @param _weiAmount Value in wei involved in the purchase\n   */\n  function _preValidatePurchase(address _beneficiary, uint256 _weiAmount) internal {\n    require(_beneficiary != address(0));\n    require(_weiAmount != 0);\n  }\n\n  /**\n   * @dev Validation of an executed purchase. Observe state and use revert statements to undo rollback when valid conditions are not met.\n   * @param _beneficiary Address performing the token purchase\n   * @param _weiAmount Value in wei involved in the purchase\n   */\n  function _postValidatePurchase(address _beneficiary, uint256 _weiAmount) internal {\n    // optional override\n  }\n\n  /**\n   * @dev Source of tokens. Override this method to modify the way in which the crowdsale ultimately gets and sends its tokens.\n   * @param _beneficiary Address performing the token purchase\n   * @param _tokenAmount Number of tokens to be emitted\n   */\n  function _deliverTokens(address _beneficiary, uint256 _tokenAmount) internal {\n    token.transfer(_beneficiary, _tokenAmount);\n  }\n\n  /**\n   * @dev Executed when a purchase has been validated and is ready to be executed. Not necessarily emits/sends tokens.\n   * @param _beneficiary Address receiving the tokens\n   * @param _tokenAmount Number of tokens to be purchased\n   */\n  function _processPurchase(address _beneficiary, uint256 _tokenAmount) internal {\n    _deliverTokens(_beneficiary, _tokenAmount);\n  }\n\n  /**\n   * @dev Override for extensions that require an internal state to check for validity (current user contributions, etc.)\n   * @param _beneficiary Address receiving the tokens\n   * @param _weiAmount Value in wei involved in the purchase\n   */\n  function _updatePurchasingState(address _beneficiary, uint256 _weiAmount) internal {\n    // optional override\n  }\n\n  /**\n   * @dev Override to extend the way in which ether is converted to tokens.\n   * @param _weiAmount Value in wei to be converted into tokens\n   * @return Number of tokens that can be purchased with the specified _weiAmount\n   */\n  function _getTokenAmount(uint256 _weiAmount) internal view returns (uint256) {\n    return _weiAmount.mul(rate);\n  }\n\n  /**\n   * @dev Determines how ETH is stored/forwarded on purchases.\n   */\n  function _forwardFunds() internal {\n    wallet.transfer(msg.value);\n  }\n}\n\n// File: contracts/PO8/zlib/ownership/Ownable.sol\n\n/**\n * @title Ownable\n * @dev The Ownable contract has an owner address, and provides basic authorization control\n * functions, this simplifies the implementation of \"user permissions\".\n */\ncontract Ownable {\n  address public owner;\n\n\n  event OwnershipTransferred(address indexed previousOwner, address indexed newOwner);\n\n\n  /**\n   * @dev The Ownable constructor sets the original `owner` of the contract to the sender\n   * account.\n   */\n  function Ownable() public {\n    owner = msg.sender;\n  }\n\n  /**\n   * @dev Throws if called by any account other than the owner.\n   */\n  modifier onlyOwner() {\n    require(msg.sender == owner);\n    _;\n  }\n\n  /**\n   * @dev Allows the current owner to transfer control of the contract to a newOwner.\n   * @param newOwner The address to transfer ownership to.\n   */\n  function transferOwnership(address newOwner) public onlyOwner {\n    require(newOwner != address(0));\n    OwnershipTransferred(owner, newOwner);\n    owner = newOwner;\n  }\n\n}\n\n// File: contracts/PO8/zlib/crowdsale/validation/TimedCrowdsale.sol\n\n/**\n * @title TimedCrowdsale\n * @dev Crowdsale accepting contributions only within a time frame.\n */\ncontract TimedCrowdsale is Crowdsale {\n  using SafeMath for uint256;\n\n  uint256 public openingTime;\n  uint256 public closingTime;\n\n    event TimeCrowdsaleStatus(uint now, uint256 open, uint256 close);\n  /**\n   * @dev Reverts if not in crowdsale time range. \n   */\n  modifier onlyWhileOpen {\n    TimeCrowdsaleStatus(now, openingTime, closingTime);\n    require(now >= openingTime && now <= closingTime);\n    _;\n  }\n\n  /**\n   * @dev Constructor, takes crowdsale opening and closing times.\n   * @param _openingTime Crowdsale opening time\n   * @param _closingTime Crowdsale closing time\n   */\n  function TimedCrowdsale(uint256 _openingTime, uint256 _closingTime) public {\n    require(_openingTime >= now);\n    require(_closingTime >= _openingTime);\n\n    openingTime = _openingTime;\n    closingTime = _closingTime;\n  }\n\n  /**\n   * @dev Checks whether the period in which the crowdsale is open has already elapsed.\n   * @return Whether crowdsale period has elapsed\n   */\n  function hasClosed() public view returns (bool) {\n    return now > closingTime;\n  }\n  \n  /**\n   * @dev Extend parent behavior requiring to be within contributing period\n   * @param _beneficiary Token purchaser\n   * @param _weiAmount Amount of wei contributed\n   */\n  function _preValidatePurchase(address _beneficiary, uint256 _weiAmount) internal onlyWhileOpen {\n    super._preValidatePurchase(_beneficiary, _weiAmount);\n  }\n\n}\n\n// File: contracts/PO8/zlib/crowdsale/distribution/FinalizableCrowdsale.sol\n\n/**\n * @title FinalizableCrowdsale\n * @dev Extension of Crowdsale where an owner can do extra work\n * after finishing.\n */\ncontract FinalizableCrowdsale is TimedCrowdsale, Ownable {\n  using SafeMath for uint256;\n\n  bool public isFinalized = false;\n\n  event Finalized();\n\n  /**\n   * @dev Must be called after crowdsale ends, to do some extra finalization\n   * work. Calls the contract's finalization function.\n   */\n  function finalize() onlyOwner public {\n    require(!isFinalized);\n    require(hasClosed());\n\n    finalization();\n    Finalized();\n\n    isFinalized = true;\n  }\n\n  /**\n   * @dev Can be overridden to add finalization logic. The overriding function\n   * should call super.finalization() to ensure the chain of finalization is\n   * executed entirely.\n   */\n  function finalization() internal {\n  }\n}\n\n// File: contracts/PO8/zlib/crowdsale/distribution/PostDeliveryCrowdsale.sol\n\n/**\n * @title PostDeliveryCrowdsale\n * @dev Crowdsale that locks tokens from withdrawal until it ends.\n */\ncontract PostDeliveryCrowdsale is TimedCrowdsale {\n  using SafeMath for uint256;\n\n  mapping(address => uint256) public balances;\n\n  /**\n   * @dev Overrides parent by storing balances instead of issuing tokens right away.\n   * @param _beneficiary Token purchaser\n   * @param _tokenAmount Amount of tokens purchased\n   */\n  function _processPurchase(address _beneficiary, uint256 _tokenAmount) internal {\n    balances[_beneficiary] = balances[_beneficiary].add(_tokenAmount);\n  }\n\n  /**\n   * @dev Withdraw tokens only after crowdsale ends.\n   */\n  function withdrawTokens() public {\n    require(hasClosed());\n    uint256 amount = balances[msg.sender];\n    require(amount > 0);\n    balances[msg.sender] = 0;\n    _deliverTokens(msg.sender, amount);\n  }\n}\n\n// File: contracts/PO8/zlib/crowdsale/emission/AllowanceCrowdsale.sol\n\n/**\n * @title AllowanceCrowdsale\n * @dev Extension of Crowdsale where tokens are held by a wallet, which approves an allowance to the crowdsale.\n */\ncontract AllowanceCrowdsale is Crowdsale {\n  using SafeMath for uint256;\n\n  address public tokenWallet;\n\n  /**\n   * @dev Constructor, takes token wallet address. \n   * @param _tokenWallet Address holding the tokens, which has approved allowance to the crowdsale\n   */\n  function AllowanceCrowdsale(address _tokenWallet) public {\n    require(_tokenWallet != address(0));\n    tokenWallet = _tokenWallet;\n  }\n\n  /**\n   * @dev Checks the amount of tokens left in the allowance.\n   * @return Amount of tokens left in the allowance\n   */\n  function remainingTokens() public view returns (uint256) {\n    return token.allowance(tokenWallet, this);\n  }\n\n  /**\n   * @dev Overrides parent behavior by transferring tokens from wallet.\n   * @param _beneficiary Token purchaser\n   * @param _tokenAmount Amount of tokens purchased\n   */\n  function _deliverTokens(address _beneficiary, uint256 _tokenAmount) internal {\n    token.transferFrom(tokenWallet, _beneficiary, _tokenAmount);\n  }\n}\n\n// File: contracts/PO8/zlib/crowdsale/validation/CappedCrowdsale.sol\n\n/**\n * @title CappedCrowdsale\n * @dev Crowdsale with a limit for total contributions.\n */\ncontract CappedCrowdsale is Crowdsale {\n  using SafeMath for uint256;\n\n  uint256 public cap;\n\n  /**\n   * @dev Constructor, takes maximum amount of wei accepted in the crowdsale.\n   * @param _cap Max amount of wei to be contributed\n   */\n  function CappedCrowdsale(uint256 _cap) public {\n    require(_cap > 0);\n    cap = _cap;\n  }\n\n  /**\n   * @dev Checks whether the cap has been reached. \n   * @return Whether the cap was reached\n   */\n  function capReached() public view returns (bool) {\n    return weiRaised >= cap;\n  }\n\n  /**\n   * @dev Extend parent behavior requiring purchase to respect the funding cap.\n   * @param _beneficiary Token purchaser\n   * @param _weiAmount Amount of wei contributed\n   */\n  function _preValidatePurchase(address _beneficiary, uint256 _weiAmount) internal {\n    super._preValidatePurchase(_beneficiary, _weiAmount);\n    require(weiRaised.add(_weiAmount) <= cap);\n  }\n\n}\n\n// File: contracts/PO8/zlib/crowdsale/validation/WhitelistedCrowdsale.sol\n\n/**\n * @title WhitelistedCrowdsale\n * @dev Crowdsale in which only whitelisted users can contribute.\n */\ncontract WhitelistedCrowdsale is Crowdsale, Ownable {\n\n  mapping(address => bool) public whitelist;\n\n  /**\n   * @dev Reverts if beneficiary is not whitelisted. Can be used when extending this contract.\n   */\n  modifier isWhitelisted(address _beneficiary) {\n    require(whitelist[_beneficiary]);\n    _;\n  }\n\n  /**\n   * @dev Adds single address to whitelist.\n   * @param _beneficiary Address to be added to the whitelist\n   */\n  function addToWhitelist(address _beneficiary) external onlyOwner {\n    whitelist[_beneficiary] = true;\n  }\n  \n  /**\n   * @dev Adds list of addresses to whitelist. Not overloaded due to limitations with truffle testing. \n   * @param _beneficiaries Addresses to be added to the whitelist\n   */\n  function addManyToWhitelist(address[] _beneficiaries) external onlyOwner {\n    for (uint256 i = 0; i < _beneficiaries.length; i++) {\n      whitelist[_beneficiaries[i]] = true;\n    }\n  }\n\n  /**\n   * @dev Removes single address from whitelist. \n   * @param _beneficiary Address to be removed to the whitelist\n   */\n  function removeFromWhitelist(address _beneficiary) external onlyOwner {\n    whitelist[_beneficiary] = false;\n  }\n\n  /**\n   * @dev Extend parent behavior requiring beneficiary to be in whitelist.\n   * @param _beneficiary Token beneficiary\n   * @param _weiAmount Amount of wei contributed\n   */\n  function _preValidatePurchase(address _beneficiary, uint256 _weiAmount) internal isWhitelisted(_beneficiary) {\n    super._preValidatePurchase(_beneficiary, _weiAmount);\n  }\n\n}\n\n// File: contracts/PO8/crowdsale/bonuses/BonusRateCrowdsale.sol\n\ncontract BonusRateCrowdsale is Crowdsale, Ownable\n{\n    uint256 public bonus_rate = 1;\n\n    function BonusRateCrowdsale(uint256 _bonus_rate)\n    {\n        bonus_rate = _bonus_rate;\n    }\n\n    function setBonusRate(uint256 _rate)  external onlyOwner {\n        require(_rate >= 1);\n        require(_rate <= 100);\n        bonus_rate = _rate;\n    }\n\n    /**\n   * @dev converts to token amount plus bonus amount, overrides parent\n   * @param _weiAmount Value in wei to be converted into tokens\n   * @return Number of tokens that can be purchased with the specified _weiAmount\n   */\n    function _getTokenAmount(uint256 _weiAmount) internal view returns (uint256) {\n        uint256 normalAmount = _weiAmount * rate;\n        uint256 bonusAmount = (normalAmount / 100) * bonus_rate;\n        return normalAmount + bonusAmount;\n    }\n}\n\n// File: contracts/PO8/crowdsale/distribution/PostFinalizableDeliveryCrowdsale.sol\n\n//author Rolf Bansbach\n\n\n\n//it allows widrawal of tokens after is finalized\ncontract PostFinalizableDeliveryCrowdsale is PostDeliveryCrowdsale, FinalizableCrowdsale\n{\n    /**\n   * @dev Withdraw tokens only after crowdsale ends and is final\n   */\n    function withdrawTokens() public {\n        require(hasClosed());\n        require(isFinalized);\n        uint256 amount = balances[msg.sender];\n        require(amount > 0);\n        balances[msg.sender] = 0;\n        _deliverTokens(msg.sender, amount);\n    }\n}\n\n// File: contracts/PO8/crowdsale/distribution/ReleasablePercentage.sol\n\ncontract ReleasablePercentage is Ownable, PostDeliveryCrowdsale, FinalizableCrowdsale {\n\n    using SafeMath for uint256;\n\n    /**\n    *cannot be greater than 100\n    */\n    uint256 public allowedPercent = 0;\n\n    /**\n    *keep track of withdrawn tokens\n    */\n    mapping(address => uint256) public withdrawnBalance;\n\n    /**\n    *API to set the allowed global percentage to be withdrawn\n    */\n    function setAllowedPercent(uint256 _new_percent)  external onlyOwner {\n        require(_new_percent <= 100);\n        require(_new_percent >= 0);\n        allowedPercent = _new_percent;\n    }\n\n    /**\n    *\n    */\n\n    /**\n   * @dev Withdraw allowed percentage of tokens only after crowdsale ends and is final\n   */\n    function withdrawTokens() public {\n        require(hasClosed());\n        require(isFinalized);\n\n        uint256 balanceLeft = balances[msg.sender];\n        uint256 withdrawn = withdrawnBalance[msg.sender];\n        uint256 totalTokens = balanceLeft + withdrawn;\n        uint256 totalAllowance = (totalTokens / 100) * allowedPercent;\n        uint256 allowedAmount = totalAllowance - withdrawn;\n\n        require(balanceLeft > 0);\n        require(allowedAmount > 0);\n        require(allowedAmount <= balanceLeft);\n        withdrawnBalance[msg.sender] = allowedAmount + withdrawn;\n        balances[msg.sender] = balanceLeft - allowedAmount;\n        _deliverTokens(msg.sender, allowedAmount);\n    }\n\n    /**\n    *@dev Process payout to x from owner account\n    */\n    function withdrawTokensTo(address beneficiary)  external onlyOwner {\n        require(hasClosed());\n        require(isFinalized);\n\n        uint256 balanceLeft = balances[beneficiary];\n        uint256 withdrawn = withdrawnBalance[beneficiary];\n        uint256 totalTokens = balanceLeft + withdrawn;\n        uint256 totalAllowance = (totalTokens / 100) * allowedPercent;\n        uint256 allowedAmount = totalAllowance - withdrawn;\n\n        require(balanceLeft > 0);\n        require(allowedAmount > 0);\n        require(allowedAmount <= balanceLeft);\n        withdrawnBalance[beneficiary] = allowedAmount + withdrawn;\n        balances[beneficiary] = balanceLeft - allowedAmount;\n        _deliverTokens(beneficiary, allowedAmount);\n    }\n\n}\n\n// File: contracts/PO8/crowdsale/payout/PayoutRateFluctuation.sol\n\ncontract PayoutRateFluctuation is Crowdsale, Ownable {\n    /**\n    *API to update payout rate per wei\n    */\n    function setPayoutRate(uint256 _new_rate)  external onlyOwner {\n        require(_new_rate >= 1);\n        rate = _new_rate;\n    }\n}\n\n// File: contracts/PO8/crowdsale/validation/MinimumRequired.sol\n\ncontract MinimumRequired is Crowdsale, Ownable\n{\n\n    uint256 minInvestmentWei =  1;//allow any default\n\n    function MinimumRequired(uint256 _minWei) public {\n        minInvestmentWei = _minWei;\n    }\n\n    modifier isMinMet(uint256 _amount) {\n        require(_amount >= minInvestmentWei);\n        _;\n    }\n\n    /**\n    *API to set mininum investment only owner of contract\n    */\n    function setMinInvestment(uint256 _minWei)  external onlyOwner {\n        minInvestmentWei = _minWei;\n    }\n\n    /**\n   * @dev Extend parent behavior requiring minimum invest of x Wei.\n   * @param _beneficiary Token beneficiary\n   * @param _weiAmount Amount of wei contributed\n   */\n    function _preValidatePurchase(address _beneficiary, uint256 _weiAmount) internal isMinMet(_weiAmount) {\n        super._preValidatePurchase(_beneficiary, _weiAmount);\n    }\n\n\n}\n\n// File: contracts/PO8/crowdsale/validation/SetCap.sol\n\ncontract SetCap is CappedCrowdsale, Ownable {\n\n    /**\n    *API to set mininum investment only owner of contract\n    */\n    function setCapAmount(uint256 _new_cap)  external onlyOwner {\n        cap = _new_cap;\n    }\n}\n\n// File: contracts/PO8/crowdsale/PrivateSale.sol\n\ncontract PrivateSaleFlat is\n        AllowanceCrowdsale,\n        WhitelistedCrowdsale,\n        MinimumRequired,\n        BonusRateCrowdsale,\n        PayoutRateFluctuation,\n        ReleasablePercentage,\n        SetCap\n{\n    //constructor\n    function PrivateSaleFlat(\n        uint256 _open,\n        uint256 _close,\n        uint256 _cap,\n        uint256 _rate,\n        uint256 _bonus_rate,\n        uint256 _minWei,\n        address _wallet,\n        ERC20 _token,\n        ERC20 _tokenWallet\n    ) public\n        Crowdsale (_rate, _wallet, _token)\n        TimedCrowdsale(_open, _close)\n        CappedCrowdsale (_cap)\n        AllowanceCrowdsale (_tokenWallet)\n        MinimumRequired (_minWei)\n        BonusRateCrowdsale (_bonus_rate)\n    {\n\n    }\n\n}\n",
  "sourcePath": "/mnt/c/Users/rolf/projects/po8ico/contracts/PO8/crowdsale/PrivateSaleFlat.sol",
  "compiler": {
    "name": "solc",
    "version": "0.4.19+commit.c4cbbb05.Emscripten.clang"
  },
  "schemaVersion": "2.0.0",
  "updatedAt": "2018-05-16T05:22:35.313Z"
}