{
  "contractName": "PrivateSale",
  "abi": [
    {
      "constant": true,
      "inputs": [],
      "name": "hasClosed",
      "outputs": [
        {
          "name": "",
          "type": "bool"
        }
      ],
      "payable": false,
      "stateMutability": "view",
      "type": "function"
    },
    {
      "constant": true,
      "inputs": [
        {
          "name": "",
          "type": "address"
        }
      ],
      "name": "balances",
      "outputs": [
        {
          "name": "",
          "type": "uint256"
        }
      ],
      "payable": false,
      "stateMutability": "view",
      "type": "function"
    },
    {
      "constant": true,
      "inputs": [],
      "name": "rate",
      "outputs": [
        {
          "name": "",
          "type": "uint256"
        }
      ],
      "payable": false,
      "stateMutability": "view",
      "type": "function"
    },
    {
      "constant": true,
      "inputs": [],
      "name": "cap",
      "outputs": [
        {
          "name": "",
          "type": "uint256"
        }
      ],
      "payable": false,
      "stateMutability": "view",
      "type": "function"
    },
    {
      "constant": true,
      "inputs": [],
      "name": "weiRaised",
      "outputs": [
        {
          "name": "",
          "type": "uint256"
        }
      ],
      "payable": false,
      "stateMutability": "view",
      "type": "function"
    },
    {
      "constant": false,
      "inputs": [
        {
          "name": "_new_rate",
          "type": "uint256"
        }
      ],
      "name": "setPayoutRate",
      "outputs": [],
      "payable": false,
      "stateMutability": "nonpayable",
      "type": "function"
    },
    {
      "constant": true,
      "inputs": [],
      "name": "closingTime",
      "outputs": [
        {
          "name": "",
          "type": "uint256"
        }
      ],
      "payable": false,
      "stateMutability": "view",
      "type": "function"
    },
    {
      "constant": false,
      "inputs": [],
      "name": "finalize",
      "outputs": [],
      "payable": false,
      "stateMutability": "nonpayable",
      "type": "function"
    },
    {
      "constant": true,
      "inputs": [],
      "name": "bonus_rate",
      "outputs": [
        {
          "name": "",
          "type": "uint256"
        }
      ],
      "payable": false,
      "stateMutability": "view",
      "type": "function"
    },
    {
      "constant": true,
      "inputs": [],
      "name": "capReached",
      "outputs": [
        {
          "name": "",
          "type": "bool"
        }
      ],
      "payable": false,
      "stateMutability": "view",
      "type": "function"
    },
    {
      "constant": true,
      "inputs": [],
      "name": "wallet",
      "outputs": [
        {
          "name": "",
          "type": "address"
        }
      ],
      "payable": false,
      "stateMutability": "view",
      "type": "function"
    },
    {
      "constant": true,
      "inputs": [
        {
          "name": "",
          "type": "address"
        }
      ],
      "name": "withdrawnBalance",
      "outputs": [
        {
          "name": "",
          "type": "uint256"
        }
      ],
      "payable": false,
      "stateMutability": "view",
      "type": "function"
    },
    {
      "constant": false,
      "inputs": [
        {
          "name": "_beneficiary",
          "type": "address"
        }
      ],
      "name": "removeFromWhitelist",
      "outputs": [],
      "payable": false,
      "stateMutability": "nonpayable",
      "type": "function"
    },
    {
      "constant": false,
      "inputs": [
        {
          "name": "_beneficiaries",
          "type": "address[]"
        }
      ],
      "name": "addManyToWhitelist",
      "outputs": [],
      "payable": false,
      "stateMutability": "nonpayable",
      "type": "function"
    },
    {
      "constant": true,
      "inputs": [],
      "name": "isFinalized",
      "outputs": [
        {
          "name": "",
          "type": "bool"
        }
      ],
      "payable": false,
      "stateMutability": "view",
      "type": "function"
    },
    {
      "constant": false,
      "inputs": [],
      "name": "withdrawTokens",
      "outputs": [],
      "payable": false,
      "stateMutability": "nonpayable",
      "type": "function"
    },
    {
      "constant": true,
      "inputs": [],
      "name": "owner",
      "outputs": [
        {
          "name": "",
          "type": "address"
        }
      ],
      "payable": false,
      "stateMutability": "view",
      "type": "function"
    },
    {
      "constant": true,
      "inputs": [
        {
          "name": "",
          "type": "address"
        }
      ],
      "name": "whitelist",
      "outputs": [
        {
          "name": "",
          "type": "bool"
        }
      ],
      "payable": false,
      "stateMutability": "view",
      "type": "function"
    },
    {
      "constant": false,
      "inputs": [
        {
          "name": "_new_percent",
          "type": "uint256"
        }
      ],
      "name": "setAllowedPercent",
      "outputs": [],
      "payable": false,
      "stateMutability": "nonpayable",
      "type": "function"
    },
    {
      "constant": true,
      "inputs": [],
      "name": "openingTime",
      "outputs": [
        {
          "name": "",
          "type": "uint256"
        }
      ],
      "payable": false,
      "stateMutability": "view",
      "type": "function"
    },
    {
      "constant": false,
      "inputs": [
        {
          "name": "_minWei",
          "type": "uint256"
        }
      ],
      "name": "setMinInvestment",
      "outputs": [],
      "payable": false,
      "stateMutability": "nonpayable",
      "type": "function"
    },
    {
      "constant": true,
      "inputs": [],
      "name": "remainingTokens",
      "outputs": [
        {
          "name": "",
          "type": "uint256"
        }
      ],
      "payable": false,
      "stateMutability": "view",
      "type": "function"
    },
    {
      "constant": true,
      "inputs": [],
      "name": "tokenWallet",
      "outputs": [
        {
          "name": "",
          "type": "address"
        }
      ],
      "payable": false,
      "stateMutability": "view",
      "type": "function"
    },
    {
      "constant": false,
      "inputs": [
        {
          "name": "beneficiary",
          "type": "address"
        }
      ],
      "name": "withdrawTokensTo",
      "outputs": [],
      "payable": false,
      "stateMutability": "nonpayable",
      "type": "function"
    },
    {
      "constant": true,
      "inputs": [],
      "name": "allowedPercent",
      "outputs": [
        {
          "name": "",
          "type": "uint256"
        }
      ],
      "payable": false,
      "stateMutability": "view",
      "type": "function"
    },
    {
      "constant": false,
      "inputs": [
        {
          "name": "_beneficiary",
          "type": "address"
        }
      ],
      "name": "addToWhitelist",
      "outputs": [],
      "payable": false,
      "stateMutability": "nonpayable",
      "type": "function"
    },
    {
      "constant": false,
      "inputs": [
        {
          "name": "_rate",
          "type": "uint256"
        }
      ],
      "name": "setBonusRate",
      "outputs": [],
      "payable": false,
      "stateMutability": "nonpayable",
      "type": "function"
    },
    {
      "constant": false,
      "inputs": [
        {
          "name": "_new_cap",
          "type": "uint256"
        }
      ],
      "name": "setCapAmount",
      "outputs": [],
      "payable": false,
      "stateMutability": "nonpayable",
      "type": "function"
    },
    {
      "constant": false,
      "inputs": [
        {
          "name": "_beneficiary",
          "type": "address"
        }
      ],
      "name": "buyTokens",
      "outputs": [],
      "payable": true,
      "stateMutability": "payable",
      "type": "function"
    },
    {
      "constant": false,
      "inputs": [
        {
          "name": "newOwner",
          "type": "address"
        }
      ],
      "name": "transferOwnership",
      "outputs": [],
      "payable": false,
      "stateMutability": "nonpayable",
      "type": "function"
    },
    {
      "constant": true,
      "inputs": [],
      "name": "token",
      "outputs": [
        {
          "name": "",
          "type": "address"
        }
      ],
      "payable": false,
      "stateMutability": "view",
      "type": "function"
    },
    {
      "inputs": [
        {
          "name": "_open",
          "type": "uint256"
        },
        {
          "name": "_close",
          "type": "uint256"
        },
        {
          "name": "_cap",
          "type": "uint256"
        },
        {
          "name": "_rate",
          "type": "uint256"
        },
        {
          "name": "_bonus_rate",
          "type": "uint256"
        },
        {
          "name": "_minWei",
          "type": "uint256"
        },
        {
          "name": "_wallet",
          "type": "address"
        },
        {
          "name": "_token",
          "type": "address"
        },
        {
          "name": "_tokenWallet",
          "type": "address"
        }
      ],
      "payable": false,
      "stateMutability": "nonpayable",
      "type": "constructor"
    },
    {
      "payable": true,
      "stateMutability": "payable",
      "type": "fallback"
    },
    {
      "anonymous": false,
      "inputs": [],
      "name": "Finalized",
      "type": "event"
    },
    {
      "anonymous": false,
      "inputs": [
        {
          "indexed": true,
          "name": "previousOwner",
          "type": "address"
        },
        {
          "indexed": true,
          "name": "newOwner",
          "type": "address"
        }
      ],
      "name": "OwnershipTransferred",
      "type": "event"
    },
    {
      "anonymous": false,
      "inputs": [
        {
          "indexed": true,
          "name": "purchaser",
          "type": "address"
        },
        {
          "indexed": true,
          "name": "beneficiary",
          "type": "address"
        },
        {
          "indexed": false,
          "name": "value",
          "type": "uint256"
        },
        {
          "indexed": false,
          "name": "amount",
          "type": "uint256"
        }
      ],
      "name": "TokenPurchase",
      "type": "event"
    }
  ],
  "bytecode": "0x60606040526001600a556001600b556000600d60006101000a81548160ff0219169083151502179055506000600e55341561003957600080fd5b6040516101208062001c75833981016040528080519060200190919080519060200190919080519060200190919080519060200190919080519060200190919080519060200190919080519060200190919080519060200190919080519060200190919050508484888b8b858b89896000831115156100b757600080fd5b600073ffffffffffffffffffffffffffffffffffffffff168273ffffffffffffffffffffffffffffffffffffffff16141515156100f357600080fd5b600073ffffffffffffffffffffffffffffffffffffffff168173ffffffffffffffffffffffffffffffffffffffff161415151561012f57600080fd5b8260028190555081600160006101000a81548173ffffffffffffffffffffffffffffffffffffffff021916908373ffffffffffffffffffffffffffffffffffffffff160217905550806000806101000a81548173ffffffffffffffffffffffffffffffffffffffff021916908373ffffffffffffffffffffffffffffffffffffffff160217905550505050600073ffffffffffffffffffffffffffffffffffffffff168173ffffffffffffffffffffffffffffffffffffffff16141515156101f657600080fd5b80600460006101000a81548173ffffffffffffffffffffffffffffffffffffffff021916908373ffffffffffffffffffffffffffffffffffffffff1602179055505042821015151561024757600080fd5b81811015151561025657600080fd5b8160058190555080600681905550505060008111151561027557600080fd5b806007819055505033600860006101000a81548173ffffffffffffffffffffffffffffffffffffffff021916908373ffffffffffffffffffffffffffffffffffffffff16021790555080600a819055505080600b819055505050505050505050505061198e80620002e76000396000f30060606040526004361061018b576000357c0100000000000000000000000000000000000000000000000000000000900463ffffffff1680631515bc2b1461019657806327e235e3146101c35780632c4e722e14610210578063355274ea146102395780634042b66f1461026257806348eaee661461028b5780634b6753bc146102ae5780634bb278f3146102d75780634c634934146102ec5780634f93594514610315578063521eb273146103425780637f245258146103975780638ab1d681146103e45780638c10671c1461041d5780638d4e40831461044b5780638d8f2adb146104785780638da5cb5b1461048d5780639b19251a146104e2578063b62835b114610533578063b7a8807c14610556578063ba7ed2ff1461057f578063bf583903146105a2578063bff99c6c146105cb578063c3c1d4c714610620578063cda4cb1c14610659578063e43252d714610682578063e4fcf329146106bb578063e61a5faf146106de578063ec8ac4d814610701578063f2fde38b1461072f578063fc0c546a14610768575b610194336107bd565b005b34156101a157600080fd5b6101a961088b565b604051808215151515815260200191505060405180910390f35b34156101ce57600080fd5b6101fa600480803573ffffffffffffffffffffffffffffffffffffffff16906020019091905050610897565b6040518082815260200191505060405180910390f35b341561021b57600080fd5b6102236108af565b6040518082815260200191505060405180910390f35b341561024457600080fd5b61024c6108b5565b6040518082815260200191505060405180910390f35b341561026d57600080fd5b6102756108bb565b6040518082815260200191505060405180910390f35b341561029657600080fd5b6102ac60048080359060200190919050506108c1565b005b34156102b957600080fd5b6102c1610937565b6040518082815260200191505060405180910390f35b34156102e257600080fd5b6102ea61093d565b005b34156102f757600080fd5b6102ff610a19565b6040518082815260200191505060405180910390f35b341561032057600080fd5b610328610a1f565b604051808215151515815260200191505060405180910390f35b341561034d57600080fd5b610355610a2e565b604051808273ffffffffffffffffffffffffffffffffffffffff1673ffffffffffffffffffffffffffffffffffffffff16815260200191505060405180910390f35b34156103a257600080fd5b6103ce600480803573ffffffffffffffffffffffffffffffffffffffff16906020019091905050610a54565b6040518082815260200191505060405180910390f35b34156103ef57600080fd5b61041b600480803573ffffffffffffffffffffffffffffffffffffffff16906020019091905050610a6c565b005b341561042857600080fd5b61044960048080359060200190820180359060200191909192905050610b23565b005b341561045657600080fd5b61045e610c25565b604051808215151515815260200191505060405180910390f35b341561048357600080fd5b61048b610c38565b005b341561049857600080fd5b6104a0610dd9565b604051808273ffffffffffffffffffffffffffffffffffffffff1673ffffffffffffffffffffffffffffffffffffffff16815260200191505060405180910390f35b34156104ed57600080fd5b610519600480803573ffffffffffffffffffffffffffffffffffffffff16906020019091905050610dff565b604051808215151515815260200191505060405180910390f35b341561053e57600080fd5b6105546004808035906020019091905050610e1f565b005b341561056157600080fd5b610569610ea5565b6040518082815260200191505060405180910390f35b341561058a57600080fd5b6105a06004808035906020019091905050610eab565b005b34156105ad57600080fd5b6105b5610f11565b6040518082815260200191505060405180910390f35b34156105d657600080fd5b6105de61104d565b604051808273ffffffffffffffffffffffffffffffffffffffff1673ffffffffffffffffffffffffffffffffffffffff16815260200191505060405180910390f35b341561062b57600080fd5b610657600480803573ffffffffffffffffffffffffffffffffffffffff16906020019091905050611073565b005b341561066457600080fd5b61066c611271565b6040518082815260200191505060405180910390f35b341561068d57600080fd5b6106b9600480803573ffffffffffffffffffffffffffffffffffffffff16906020019091905050611277565b005b34156106c657600080fd5b6106dc600480803590602001909190505061132e565b005b34156106e957600080fd5b6106ff60048080359060200190919050506113b4565b005b61072d600480803573ffffffffffffffffffffffffffffffffffffffff169060200190919050506107bd565b005b341561073a57600080fd5b610766600480803573ffffffffffffffffffffffffffffffffffffffff1690602001909190505061141a565b005b341561077357600080fd5b61077b611572565b604051808273ffffffffffffffffffffffffffffffffffffffff1673ffffffffffffffffffffffffffffffffffffffff16815260200191505060405180910390f35b6000803491506107cd8383611597565b6107d6826115b8565b90506107ed826003546115e390919063ffffffff16565b6003819055506107fd8382611601565b8273ffffffffffffffffffffffffffffffffffffffff163373ffffffffffffffffffffffffffffffffffffffff167f623b3804fa71d67900d064613da8f94b9617215ee90799290593e1745087ad188484604051808381526020018281526020019250505060405180910390a3610874838361169a565b61087c61169e565b6108868383611702565b505050565b60006006544211905090565b600c6020528060005260406000206000915090505481565b60025481565b60075481565b60035481565b600860009054906101000a900473ffffffffffffffffffffffffffffffffffffffff1673ffffffffffffffffffffffffffffffffffffffff163373ffffffffffffffffffffffffffffffffffffffff1614151561091d57600080fd5b6001811015151561092d57600080fd5b8060028190555050565b60065481565b600860009054906101000a900473ffffffffffffffffffffffffffffffffffffffff1673ffffffffffffffffffffffffffffffffffffffff163373ffffffffffffffffffffffffffffffffffffffff1614151561099957600080fd5b600d60009054906101000a900460ff161515156109b557600080fd5b6109bd61088b565b15156109c857600080fd5b6109d0611706565b7f6823b073d48d6e3a7d385eeb601452d680e74bb46afe3255a7d778f3a9b1768160405160405180910390a16001600d60006101000a81548160ff021916908315150217905550565b600b5481565b60006007546003541015905090565b600160009054906101000a900473ffffffffffffffffffffffffffffffffffffffff1681565b600f6020528060005260406000206000915090505481565b600860009054906101000a900473ffffffffffffffffffffffffffffffffffffffff1673ffffffffffffffffffffffffffffffffffffffff163373ffffffffffffffffffffffffffffffffffffffff16141515610ac857600080fd5b6000600960008373ffffffffffffffffffffffffffffffffffffffff1673ffffffffffffffffffffffffffffffffffffffff16815260200190815260200160002060006101000a81548160ff02191690831515021790555050565b6000600860009054906101000a900473ffffffffffffffffffffffffffffffffffffffff1673ffffffffffffffffffffffffffffffffffffffff163373ffffffffffffffffffffffffffffffffffffffff16141515610b8157600080fd5b600090505b82829050811015610c20576001600960008585858181101515610ba557fe5b9050602002013573ffffffffffffffffffffffffffffffffffffffff1673ffffffffffffffffffffffffffffffffffffffff1673ffffffffffffffffffffffffffffffffffffffff16815260200190815260200160002060006101000a81548160ff0219169083151502179055508080600101915050610b86565b505050565b600d60009054906101000a900460ff1681565b6000806000806000610c4861088b565b1515610c5357600080fd5b600d60009054906101000a900460ff161515610c6e57600080fd5b600c60003373ffffffffffffffffffffffffffffffffffffffff1673ffffffffffffffffffffffffffffffffffffffff168152602001908152602001600020549450600f60003373ffffffffffffffffffffffffffffffffffffffff1673ffffffffffffffffffffffffffffffffffffffff1681526020019081526020016000205493508385019250600e54606484811515610d0657fe5b040291508382039050600085111515610d1e57600080fd5b600081111515610d2d57600080fd5b848111151515610d3c57600080fd5b838101600f60003373ffffffffffffffffffffffffffffffffffffffff1673ffffffffffffffffffffffffffffffffffffffff16815260200190815260200160002081905550808503600c60003373ffffffffffffffffffffffffffffffffffffffff1673ffffffffffffffffffffffffffffffffffffffff16815260200190815260200160002081905550610dd23382611708565b5050505050565b600860009054906101000a900473ffffffffffffffffffffffffffffffffffffffff1681565b60096020528060005260406000206000915054906101000a900460ff1681565b600860009054906101000a900473ffffffffffffffffffffffffffffffffffffffff1673ffffffffffffffffffffffffffffffffffffffff163373ffffffffffffffffffffffffffffffffffffffff16141515610e7b57600080fd5b60648111151515610e8b57600080fd5b60008110151515610e9b57600080fd5b80600e8190555050565b60055481565b600860009054906101000a900473ffffffffffffffffffffffffffffffffffffffff1673ffffffffffffffffffffffffffffffffffffffff163373ffffffffffffffffffffffffffffffffffffffff16141515610f0757600080fd5b80600a8190555050565b60008060009054906101000a900473ffffffffffffffffffffffffffffffffffffffff1673ffffffffffffffffffffffffffffffffffffffff1663dd62ed3e600460009054906101000a900473ffffffffffffffffffffffffffffffffffffffff16306000604051602001526040518363ffffffff167c0100000000000000000000000000000000000000000000000000000000028152600401808373ffffffffffffffffffffffffffffffffffffffff1673ffffffffffffffffffffffffffffffffffffffff1681526020018273ffffffffffffffffffffffffffffffffffffffff1673ffffffffffffffffffffffffffffffffffffffff16815260200192505050602060405180830381600087803b151561102d57600080fd5b6102c65a03f1151561103e57600080fd5b50505060405180519050905090565b600460009054906101000a900473ffffffffffffffffffffffffffffffffffffffff1681565b6000806000806000600860009054906101000a900473ffffffffffffffffffffffffffffffffffffffff1673ffffffffffffffffffffffffffffffffffffffff163373ffffffffffffffffffffffffffffffffffffffff161415156110d757600080fd5b6110df61088b565b15156110ea57600080fd5b600d60009054906101000a900460ff16151561110557600080fd5b600c60008773ffffffffffffffffffffffffffffffffffffffff1673ffffffffffffffffffffffffffffffffffffffff168152602001908152602001600020549450600f60008773ffffffffffffffffffffffffffffffffffffffff1673ffffffffffffffffffffffffffffffffffffffff1681526020019081526020016000205493508385019250600e5460648481151561119d57fe5b0402915083820390506000851115156111b557600080fd5b6000811115156111c457600080fd5b8481111515156111d357600080fd5b838101600f60008873ffffffffffffffffffffffffffffffffffffffff1673ffffffffffffffffffffffffffffffffffffffff16815260200190815260200160002081905550808503600c60008873ffffffffffffffffffffffffffffffffffffffff1673ffffffffffffffffffffffffffffffffffffffff168152602001908152602001600020819055506112698682611708565b505050505050565b600e5481565b600860009054906101000a900473ffffffffffffffffffffffffffffffffffffffff1673ffffffffffffffffffffffffffffffffffffffff163373ffffffffffffffffffffffffffffffffffffffff161415156112d357600080fd5b6001600960008373ffffffffffffffffffffffffffffffffffffffff1673ffffffffffffffffffffffffffffffffffffffff16815260200190815260200160002060006101000a81548160ff02191690831515021790555050565b600860009054906101000a900473ffffffffffffffffffffffffffffffffffffffff1673ffffffffffffffffffffffffffffffffffffffff163373ffffffffffffffffffffffffffffffffffffffff1614151561138a57600080fd5b6001811015151561139a57600080fd5b606481111515156113aa57600080fd5b80600b8190555050565b600860009054906101000a900473ffffffffffffffffffffffffffffffffffffffff1673ffffffffffffffffffffffffffffffffffffffff163373ffffffffffffffffffffffffffffffffffffffff1614151561141057600080fd5b8060078190555050565b600860009054906101000a900473ffffffffffffffffffffffffffffffffffffffff1673ffffffffffffffffffffffffffffffffffffffff163373ffffffffffffffffffffffffffffffffffffffff1614151561147657600080fd5b600073ffffffffffffffffffffffffffffffffffffffff168173ffffffffffffffffffffffffffffffffffffffff16141515156114b257600080fd5b8073ffffffffffffffffffffffffffffffffffffffff16600860009054906101000a900473ffffffffffffffffffffffffffffffffffffffff1673ffffffffffffffffffffffffffffffffffffffff167f8be0079c531659141344cd1fd0a4f28419497f9722a3daafe3b4186f6b6457e060405160405180910390a380600860006101000a81548173ffffffffffffffffffffffffffffffffffffffff021916908373ffffffffffffffffffffffffffffffffffffffff16021790555050565b6000809054906101000a900473ffffffffffffffffffffffffffffffffffffffff1681565b80600a5481101515156115a957600080fd5b6115b3838361184a565b505050565b600080600060025484029150600b546064838115156115d357fe5b0402905080820192505050919050565b60008082840190508381101515156115f757fe5b8091505092915050565b61165381600c60008573ffffffffffffffffffffffffffffffffffffffff1673ffffffffffffffffffffffffffffffffffffffff168152602001908152602001600020546115e390919063ffffffff16565b600c60008473ffffffffffffffffffffffffffffffffffffffff1673ffffffffffffffffffffffffffffffffffffffff168152602001908152602001600020819055505050565b5050565b600160009054906101000a900473ffffffffffffffffffffffffffffffffffffffff1673ffffffffffffffffffffffffffffffffffffffff166108fc349081150290604051600060405180830381858888f19350505050151561170057600080fd5b565b5050565b565b6000809054906101000a900473ffffffffffffffffffffffffffffffffffffffff1673ffffffffffffffffffffffffffffffffffffffff166323b872dd600460009054906101000a900473ffffffffffffffffffffffffffffffffffffffff1684846000604051602001526040518463ffffffff167c0100000000000000000000000000000000000000000000000000000000028152600401808473ffffffffffffffffffffffffffffffffffffffff1673ffffffffffffffffffffffffffffffffffffffff1681526020018373ffffffffffffffffffffffffffffffffffffffff1673ffffffffffffffffffffffffffffffffffffffff1681526020018281526020019350505050602060405180830381600087803b151561182a57600080fd5b6102c65a03f1151561183b57600080fd5b50505060405180519050505050565b81600960008273ffffffffffffffffffffffffffffffffffffffff1673ffffffffffffffffffffffffffffffffffffffff16815260200190815260200160002060009054906101000a900460ff1615156118a357600080fd5b6118ad83836118b2565b505050565b6118bc82826118e5565b6007546118d4826003546115e390919063ffffffff16565b111515156118e157600080fd5b5050565b60055442101580156118f957506006544211155b151561190457600080fd5b61190e8282611912565b5050565b600073ffffffffffffffffffffffffffffffffffffffff168273ffffffffffffffffffffffffffffffffffffffff161415151561194e57600080fd5b6000811415151561195e57600080fd5b50505600a165627a7a72305820543f878bda198d24bdb1862ac88e77af7dd493387a960d8608eabb1e2604433e0029",
  "source": "pragma solidity ^0.4.18;\r\n\r\nimport \"../zlib/token/ERC20/ERC20.sol\";\r\nimport \"../zlib/crowdsale/Crowdsale.sol\";\r\nimport \"../zlib/crowdsale/validation/WhitelistedCrowdsale.sol\";\r\nimport \"../zlib/crowdsale/validation/CappedCrowdsale.sol\";\r\nimport \"../zlib/crowdsale/emission/AllowanceCrowdsale.sol\";\r\nimport \"../zlib/crowdsale/validation/TimedCrowdsale.sol\";\r\nimport \"../zlib/crowdsale/distribution/PostDeliveryCrowdsale.sol\";\r\nimport \"../zlib/crowdsale/distribution/FinalizableCrowdsale.sol\";\r\nimport \"./distribution/PostFinalizableDeliveryCrowdsale.sol\";\r\nimport \"./distribution/ReleasablePercentage.sol\";\r\nimport \"./validation/MinimumRequired.sol\";\r\nimport \"./validation/SetCap.sol\";\r\nimport \"./bonuses/BonusRateCrowdsale.sol\";\r\nimport \"./payout/PayoutRateFluctuation.sol\";\r\n\r\ncontract PrivateSale is\r\n        AllowanceCrowdsale,\r\n        WhitelistedCrowdsale,\r\n        MinimumRequired,\r\n        BonusRateCrowdsale,\r\n        PayoutRateFluctuation,\r\n        ReleasablePercentage,\r\n        SetCap\r\n{\r\n    //constructor\r\n    function PrivateSale(\r\n        uint256 _open,\r\n        uint256 _close,\r\n        uint256 _cap ,\r\n        uint256 _rate,\r\n        uint256 _bonus_rate,\r\n        uint256 _minWei,\r\n        address _wallet,\r\n        ERC20 _token,\r\n        ERC20 _tokenWallet\r\n    ) public\r\n        Crowdsale (_rate, _wallet, _token)\r\n        TimedCrowdsale(_open, _close)\r\n        CappedCrowdsale (_cap)\r\n        AllowanceCrowdsale (_tokenWallet)\r\n        MinimumRequired (_minWei)\r\n        BonusRateCrowdsale (_bonus_rate)\r\n    {\r\n\r\n    }\r\n\r\n}\r\n",
  "sourcePath": "/mnt/c/Users/rolf/projects/po8ico/contracts/PO8/crowdsale/PrivateSale.sol",
  "compiler": {
    "name": "solc",
    "version": "0.4.19+commit.c4cbbb05.Emscripten.clang"
  },
  "schemaVersion": "2.0.0",
  "updatedAt": "2018-05-11T01:08:02.970Z"
}